:020000040800F2
:10000000C0090020C1020008B72300087B1F0008B8
:10001000A9220008190B0008352D00080000000077
:100020000000000000000000000000006927000838
:100030001B0B000800000000C52600086B27000805
:10004000DB020008DB020008DB020008DB0200081C
:10005000DB020008DB020008DB020008DB0200080C
:10006000DB020008DB020008DB020008DB020008FC
:10007000DB020008DB020008DB020008DB020008EC
:10008000DB020008DB020008DB020008DB020008DC
:10009000DB020008DB020008DB020008DB020008CC
:1000A000DB020008DB020008DB020008DB020008BC
:1000B000DB020008DB020008DB020008DB020008AC
:1000C000DB020008DB020008DB020008DB0200089C
:1000D000DB020008192D0008DB020008DB02000823
:1000E0001D0B0008DB020008DB020008DB02000831
:1000F000DB020008DB020008DB020008DB0200086C
:10010000DB020008DB020008DB020008DB0200085B
:10011000DB020008DB020008DB020008DB0200084B
:10012000DB020008DB020008DB020008DB0200083B
:10013000DB020008DB020008DB020008DB0200082B
:10014000DB020008DB020008DB020008DB0200081B
:10015000DB020008DB020008DB020008DB0200080B
:10016000DB020008DB020008DB020008DB020008FB
:10017000DB020008DB020008DB020008DB020008EB
:10018000DB020008DB020008DB020008DB020008DB
:10019000DB02000800000000DB020008DB020008B0
:1001A000DB020008DB020008DB020008DB020008BB
:1001B000DB020008DB020008DB020008DB020008AB
:1001C000DB020008DB020008DB020008DB0200089B
:1001D000DB020008DB02000800F002F800F061F822
:1001E0000AA090E8000C82448344AAF10107DA4592
:1001F00001D100F056F8AFF2090EBAE80F0013F083
:10020000010F18BFFB1A43F0010318477452000096
:10021000945200000A444FF0000C10F8013B13F018
:10022000070408BF10F8014B1D1108BF10F8015B4F
:10023000641E05D010F8016B641E01F8016BF9D142
:1002400013F0080F1EBF10F8014BAD1C0C1B09D199
:100250006D1E58BF01F801CBFAD505E014F8016B0B
:1002600001F8016B6D1EF9D59142D6D3704700009D
:100270000023002400250026103A28BF78C1FBD8AF
:10028000520728BF30C148BF0B607047642900F097
:10029000E380002070471FB504F0F8FB1FBD10B5C8
:1002A00010BD00F089FA1146FFF7F5FF03F02CFDB1
:1002B00000F0A7FA03B4FFF7F2FF03BC00F0A8FABE
:1002C0000948804709480047FEE7FEE7FEE7FEE7EA
:1002D000FEE7FEE7FEE7FEE7FEE7FEE70448054926
:1002E000054A064B70470000D5270008D9010008D1
:1002F000C0030020C0090020C0050020C005002068
:1003000053EA020C00F069802DE9F04B4FF0000633
:10031000002B1FBFB3FA83F503FA05F424FA05F6A0
:100320005E4012BF1643B2FA82F502FA05F4C5F137
:1003300020051EBF22FA05FC44EA0C04203556EACB
:10034000044C4FEA144418BF641C4FF000084FF0EF
:100350000009904271EB030C39D3002919BFB1FA9F
:1003600081F701FA07F6B0FA80F700FA07F6C7F14D
:1003700020071EBF20FA07FC46EA0C062037B6FB12
:10038000F4FCA7EB0507103F07F01F0BCBF120068D
:100390000CFA0BFB2CFA06F644BFB3460026202FBE
:1003A000A4BF5E464FF0000B5BEA060C08BF4FF09F
:1003B000010B19EB0B09ABFB027C48EB0608C01BD9
:1003C00006FB02CC0BFB03CC71EB0C01C1E70B4627
:1003D000024641464846BDE8F08B13B54FF0000099
:1003E0004FF00001AFF30080BDE81C4070470000F3
:1003F0000FB4044910B503AA029800F0BFF910BC6D
:100400005DF814FB4802002070B504468569006859
:10041000C10601D5302600E02026C00707D070BDF8
:10042000D4E9012130469047206A401C20626D1EAD
:10043000F6D570BD70B5044685690078C00707D150
:1004400070BDD4E9012120209047206A401C206221
:100450006D1EF6D570BD00002DE9F0410646002462
:1004600010687529314616A510D0AFF3008000281A
:1004700002DA404213A507E031688A0701D512A5C8
:1004800002E0490704D511A5012401E0AFF3008083
:1004900000210A2206F1240709E0B0FBF2FCB0FBC0
:1004A000F2F302FB1C00303078541846491C002837
:1004B000F3D123462A463046BDE8F04100F0EDB8BE
:1004C000000000002D0000002B00000020000000B4
:1004D0002DE9F0474FF0000A89460446C0F820A0F5
:1004E0002046E1688847002876D0252806D0D4E940
:1004F00001219047206A401C2062F1E7E168204614
:1005000000268847C4F81CA005460027C4F818A098
:100510002A2D09D0284603F0ABFB38B304EB87083B
:10052000303DC8F8185019E059F8041B204604EB78
:1005300087029161E1688847012F054618D1E0697B
:10054000002820DA26F020061DE0D8F8180000EB7D
:10055000800005EB40003038C8F818002046E168FC
:100560008847054603F084FB0028EED1012F0AD00E
:100570002E2D08D12046E16888477F1C0546022FB2
:1005800046F02006C4DBA069002803DA404246F0AA
:100590000106A061F00701D026F010066C2D0AD0EC
:1005A000682D08D04C2D39D06A2D35D0742D35D01A
:1005B0007A2D33D016E0E1682F4620468847B842AE
:1005C00005460AD16C2F27D04FF48060E1680643BE
:1005D00020468847054605E027E06C2F1AD04FF4E7
:1005E000807006430DB3A5F14100192802D82035CB
:1005F00046F400664A462946204626604E46FFF7E6
:1006000045FE80B101280BD0F61D26F0070000F151
:10061000080965E74020E4E78020D7E70020D5E718
:1006200006F104095CE7284661E7206ABDE8F08727
:100630004FF0000200B5134694469646203922BF7B
:10064000A0E80C50A0E80C50B1F12001BFF4F7AFC6
:10065000090728BFA0E80C5048BF0CC05DF804EBA8
:10066000890028BF40F8042B08BF704748BF20F816
:10067000022B11F0804F18BF00F8012B7047704714
:100680007047704710B500F08BF8006810BD10B5CA
:10069000044600F085F8046010BD2DE9F0470D46D2
:1006A00099469246044600F124080168880604D55C
:1006B000E06921F01001216000E00120A84201DD85
:1006C000471B00E00027A1697A1902EB0900081A0C
:1006D000A0612078C00602D42046FFF795FE0026D0
:1006E00008E0D4E901211AF806009047206A401C6E
:1006F000761C20624E45F4DB2078C0060AD52046E1
:10070000FFF782FE06E0D4E9012130209047206AFD
:10071000401C2062381EA7F10107F4DC07E0D4E991
:10072000012118F805009047206A401C2062281E0D
:10073000A5F10105F3DC2046FFF77CFE20780006DA
:1007400002D50220BDE8F0870120FBE701694A1CC1
:1007500002610878704700B58FB0CDE90131002102
:10076000059105497944CDE9031011466846FFF724
:10077000AFFE0FB000BD0000E5FFFFFF074B70B5F7
:100780000D467B44FFF7E7FF0446284600F00CF8CF
:1007900010B14FF0FF3070BD204670BD67350000CE
:1007A0000048704760030020007B00F08000704725
:1007B00000487047600300207546FFF7F9FFAE461A
:1007C00005006946534620F00700854618B020B55D
:1007D000FFF784FDBDE820404FF000064FF0000712
:1007E0004FF000084FF0000B21F00701AC46ACE8D9
:1007F000C009ACE8C009ACE8C009ACE8C0098D4646
:1008000070470446AFF300802046FFF753FD000019
:1008100001491820ABBEFEE7260002007047000029
:100820007CB50546D5E90040044303F0E9FD41EC01
:10083000110B9FED1B0B02F02FFB51EC100B03F083
:100840009BFD1949C860A86808B144F40004E86831
:1008500008B144F48014286908B144F08004686940
:1008600008B144F04004A86908B144F01004E869F4
:1008700008B144F00804200C8DF80200200A8DF81D
:10088000010010208DF804008DF8004001A901201E
:1008900002F074FA6946032002F070FA7CBD000091
:1008A00000000000000000404C02002008B58DF858
:1008B000002010B180208DF8000011B140208DF88B
:1008C00000006946012002F059FA08BD30B587B032
:1008D00014216846FFF7ACFE3948C16C41F00401B1
:1008E000C164C16C01F004010691C16C41F00401C6
:1008F000C164C16C01F004010691C16C41F00401B6
:10090000C164C16C01F004010691C16C41F00401A5
:10091000C164C06C2B4D00F0040006900122082138
:10092000284600F0DAFA08200124CDE9000403206B
:10093000CDE902406946284600F0A6F901220421CB
:10094000284600F0CAFA042000906946284600F0C4
:100950009BF901221146284600F0BFFA6946284655
:10096000009400F091F900210220CDE900010291EC
:100970006946284600F088F9FF248DF8144005A93F
:10098000012002F0FBF98DF8144005A9012002F0C6
:10099000F5F98DF8144005A9012002F0EFF98DF862
:1009A000144005A9012002F0E9F98DF8144005A9C9
:1009B000012002F0E3F900F007F807B030BD0000B5
:1009C000001002400008004830B593B000244FF4F6
:1009D0007040CDE90A0401200C94CDE90E40CDE928
:1009E0001040C5050D940095C104CDE90141CDE944
:1009F00006400394049405940AA8FFF711FF02F03F
:100A00009AF9684600F030F802F095F94FF42000AA
:100A10000090684600F028F802F08DF90A2007904F
:100A20000094684600F020F8302201210020FFF7F2
:100A30003DFF08A9032001F047FE9DF820009DF826
:100A40002110000440EA01209DF822106A1E08438C
:100A500004498243A842C1E9010200DBD043486057
:100A600013B030BD4C0200201CB5826801680A43F7
:100A7000C169114342680AB141F48011C2680AB1E8
:100A800041F4004102690AB141F4005142690AB1DE
:100A900041F40061806908B141F48061080C8DF86F
:100AA0000200080A8DF8010008208DF800108DF86A
:100AB000040001A9012002F061F96946032002F057
:100AC0005DF91CBD08B502F036F958208DF800001C
:100AD0006946012002F052F900F026F808BD000036
:100AE00010B50446FFF7EEFF002812D00949097837
:100AF000042906D0052906D0062906D0072906D0E4
:100B000006E0206004E0606002E0A06000E0E060D9
:100B1000012010BD4C020020FEE770474FF400504A
:100B200000F0A6B872B6FEE708B56946032001F0EA
:100B3000CBFD002201211046FFF7B8FE0A49012033
:100B400001F0C2FD0848401E417801F00701017024
:100B50009DF801009DF8021000EB01209DF80010A7
:100B600001EB002008BD00004D02002010B590F8F8
:100B7000253000210122022B03D00421C163012171
:100B800022E003681C6824F00E041C60836C1C685F
:100B900024F480741C6003681C6824F001041C6049
:100BA00090F84430046C03F01F0302FA03F363600F
:100BB000D0E913345C60436D33B11C6824F4807455
:100BC0001C60D0E916345C6080F82520002280F893
:100BD0002420084610BD70B590F82520002401217E
:100BE0002346022A07D00422C26380F8251080F829
:100BF0002430012429E00268156825F00E051560EF
:100C00000268156825F001051560826C156825F4E9
:100C10008075156090F84420056C02F01F0201FAFF
:100C200002F26A60D0E913255560426D32B1156851
:100C300025F480751560D0E91625556080F82510DB
:100C400080F82430816B01B18847204670BD0000D8
:100C500010B501F0B1FB054802230288511C018048
:100C60000321BDE81040282001F07CBC00000020DA
:100C7000044910B50A68024202D00860FFF7E8FF95
:100C800010BD0000140401402DE9F04FDFF8209260
:100C9000002301260324A9F1040B85B00F2709F1D5
:100CA000040AABF1040EFAE006FA03F52A407CD000
:100CB00091F804C00CF0030CBCF1010F02D0BCF1A0
:100CC000020F26D1D0F808C0CDF800C04FEA430C7F
:100CD00004FA0CF8CDF810C0DDF800C02CEA080CBE
:100CE000CDF800C0D1F80C80DDF810C008FA0CF87F
:100CF000DDF800C048EA0C08C0F80880D0F804C04D
:100D00002CEA050C0D79C5F300159D4045EA0C054C
:100D100045600D79ED43AD070ED0C5684FEA430835
:100D200004FA08FC25EA0C05D1F808C00CFA08FC06
:100D30004CEA050CC0F80CC00D7905F00305022D36
:100D400016D1DD0800EB850CCDF808C0DCF820805A
:100D50005D074FEAD56C07FA0CF528EA05080D691E
:100D600005FA0CF5DDF808C045EA0805CCF8205076
:100D700005684FEA430CCDF808C004FA0CFC25EADC
:100D80000C0591F804C00CF00308DDF808C008FA5F
:100D90000CF848EA0508C0F800804D6815F4403F9B
:100DA0007CD0444DD5F860C000E077E04CF0010CF9
:100DB000C5F860C02D6E23F0030C05F00105009509
:100DC0003D4D65440295AD684FEA837C4FEA1C783F
:100DD00007FA08FC25EA0C05B0F1904F06D0DFF8C1
:100DE000DCC0604505D14FF0010C20E04FF0000C55
:100DF0001DE0DFF8CCC0604502D14FF0020C16E0D8
:100E0000DFF8C0C0604502D14FF0030C0FE0DFF8FF
:100E1000B8C0604502D14FF0040C08E0DFF8ACC068
:100E2000604502D14FF0050C01E04FF0060C0CFAC2
:100E300008FC4CEA050C029DC5F808C0D9F8005022
:100E4000CC46D1F8048095435FEAC82800D5154305
:100E5000CCF80050DAF80050D446D1F8048095431D
:100E60005FEA882800D51543CCF80050DBF8005025
:100E7000DC46D1F8048095435FEA883800D51543F5
:100E8000CCF80050DEF80050F446D1F804809543C9
:100E90005FEAC83800D51543CCF800505B1C0A68DF
:100EA00032FA03F57FF400AF05B0BDE8F08F000023
:100EB0000804014000100240000001400004004806
:100EC00000080048000C00480010004800140048CA
:100ED0000069084000D0012070470AB18161704765
:100EE000816270470148806870470000040000205C
:100EF0000248816842681144816070470400002004
:100F000010B50024032000F073F8002000F008F86A
:100F100008B1012401E000F025F8204610BD0000D2
:100F200070B50E4E05460024706898B14FF47A7182
:100F3000B1FBF0F00A490968B1FBF0F000F0ACFD3C
:100F400040B9102D06D200222946501E00F030F87C
:100F5000356000E00124204670BD00000400002040
:100F6000100000200A4882B0016E41F001010166C4
:100F7000016E01F001010091816D41F080518165A8
:100F8000806D00F08050009002B000F0A1B8000029
:100F900000100240002809DB00F01F0201219140EF
:100FA0004009800000F1E020C0F800117047000007
:100FB000F0B40E4B1B680C46C3F30223C3F10705C4
:100FC000042D00D90425191D072901D2002300E0B2
:100FD000DB1E012606FA05F1491E214099409E407C
:100FE000761E16403143F0BC01F046BF0CED00E028
:100FF000064900F0070208684FF6FF03184040EA70
:101000000220034A10430860704700000CED00E026
:101010000000FA052B492C4B0A6832214A432B4920
:1010200040B1B0F5007F086829D020F4C06040F4DA
:1010300080602CE00868C0F34120022804D051F8F9
:10104000800F20F4807022E0D1F8800020F48070BE
:10105000C1F88000086820F4C06040F400700860A7
:10106000B2FBF3F0401C00E0401E4A69520501D576
:101070000028F9D1486940050AD503207047C0F31C
:101080004120022806D051F8800F40F4807008609B
:1010900000207047D1F8800040F48070C1F88000D3
:1010A000086820F4C06040F400700860B2FBF3F000
:1010B000401C00E0401E4A695205DBD50028F9D1EA
:1010C000D8E700001000002040420F0000700040F0
:1010D0000248816841F4804181607047007000409F
:1010E0002DE9F843044600680026BB4D00035ED599
:1010F000A86D0027C00008D4A86D40F08050A865F6
:10110000A86D012700F080500090DFF8D092D9F848
:10111000001041F48071C9F80010FFF7E3FE80462B
:1011200006E000BFFFF7DEFEA0EB080002282BD888
:10113000D9F80000C005F5D5D5F8900010F440703E
:1011400014D0216D814211D0D5F89000D5F89010BF
:1011500020F4407041F48031C5F89010D5F890101B
:1011600021F48031C5F89010C5F89000C00711D067
:10117000FFF7B8FE804641F2883907E0FFF7B2FE7C
:10118000A0EB0801494501D903260BE0D5F89000F2
:101190008007F3D5D5F89000216D20F44070084306
:1011A000C5F890001FB1A86D20F08050A865207888
:1011B000C00707D0D5F88800616820F00300084315
:1011C000C5F888002078800707D5D5F88800A16881
:1011D00020F00C000843C5F888002078400707D5A8
:1011E000D5F88800E16820F030000843C5F8880091
:1011F0002078000707D5D5F88800216920F0C000C5
:101200000843C5F888002078C00607D5D5F88800BF
:10121000616920F440700843C5F888002078800692
:1012200007D5D5F88800A16920F440600843C5F8C7
:1012300088002078400607D5D5F88800E16920F4B9
:1012400040500843C5F888002078000607D5D5F837
:101250008800216A20F440400843C5F888002088AF
:10126000C00507D5D5F88800616A20F440300843EE
:10127000C5F888002068800307D5D5F89C00A16ACE
:1012800020F003000843C5F89C002088800507D59E
:10129000D5F88800E16A20F440200843C5F88800AA
:1012A000208840050FD5D5F88800216B20F4401028
:1012B0000843C5F88800206BB0F5801F03D1E868AB
:1012C00040F48010E860208800050FD5D5F888002C
:1012D000616B20F440000843C5F88800606BB0F5EE
:1012E000800F03D1E86840F48010E8602088C004D3
:1012F0000FD5D5F88800A16B20F040700843C5F8E1
:101300008800A06BB0F1807F03D1E86840F48010C2
:10131000E86020884FF0006180040ED5D5F8880081
:10132000E26B20F040601043C5F88800E06B884213
:1013300003D1E86840F48010E860208840040ED5AE
:10134000D5F88800226C20F040601043C5F8880072
:10135000206C884203D1E86840F48010E86020885F
:1013600000040FD5D5F88800616C20F04050084388
:10137000C5F88800606CB0F1805F03D1E86840F484
:101380008030E8602068C0030FD5D5F88800A16CD4
:1013900020F040400843C5F88800A06CB0F1804FB1
:1013A00003D1E86840F48030E860206840030FD53E
:1013B000D5F89C00E16C20F440100843C5F89C006F
:1013C000E06CB0F5001F03D1E86840F48010E860DD
:1013D0003046BDE8F8830000001002400070004075
:1013E0002DE9F0470E4605004FF0000725D0DFF845
:1013F000AC81D8F8000000F00F00B0420CD2D8F851
:10140000001021F00F013143C8F80010D8F8000097
:1014100000F00F00B04210D12968614CC80741F2BA
:10142000883A5AD06868DFF87C91032808D00228EF
:1014300020682DD0400500282CDB0120BDE8F08776
:1014400020688001F9D5E06800F00302E068C0F38D
:101450000310401C032A19D0534A00BFB2FBF0F01E
:10146000E268C2F306225043E268C2F34162521CB2
:101470005200B0FBF2F0484517D9A06810F0F00F09
:101480000CD0880711D5A86840B10EE0474AE5E7BF
:101490008003D0E700F0B6F8484506D9A06820F0F0
:1014A000F00040F08000A0608027A068696820F00C
:1014B00003000843A060FFF715FD814606E000BF6A
:1014C000FFF710FDA0EB090151453AD8A068696803
:1014D00000F00C00B0EB810FF2D12868810714D521
:1014E000400703D5A06840F4E060A06028780007BA
:1014F00005D5A06820F4605040F4E060A060A068CA
:10150000A96820F0F000084304E0802F03D1A06810
:1015100020F0F000A060D8F80010404601F00F0164
:10152000B14216D9016821F00F0131430160FFF784
:10153000D9FC074607E000BFFFF7D4FCC11B5145AB
:1015400001D903207AE7D8F8000000F00F00B0427C
:10155000F2D12878400705D5A068E96820F4E0605A
:101560000843A0602878000706D5A068296920F400
:10157000605040EAC100A06000F044F8A1680C4A45
:10158000C1F30311515C01F01F01C8400949086013
:1015900009480068BDE8F047FFF7C2BC00200240E0
:1015A0000010024000B4C4040024F40000366E01B0
:1015B000AE4B00081000002004000020054806493A
:1015C00000688968054AC1F30221515C01F01F01DE
:1015D000C84070471000002000100240BE4B0008B9
:1015E0000548064900688968054AC1F3C221515C73
:1015F00001F01F01C8407047100000200010024099
:10160000BE4B0008184910B58868C0F3810217481E
:10161000012A0BD08A68164BC2F38102022A06D037
:101620008A68C2F38102032A03D0002010BD184645
:1016300010BDCA6802F00304CA68C2F30312521C48
:10164000032C02D0B0FBF2F001E0B3FBF2F0CA6869
:10165000C968C2F306225043C1F34161491C4900E5
:10166000B0FBF1F010BD0000001002400024F400B7
:1016700000366E012DE9F84304007AD02078FA4D47
:10168000C00747D0A868E96800F00C0001F003012A
:101690000C2802D0082817D001E0032914D0606874
:1016A000B0F5803F17D0B0F5A02F286817D020F4F0
:1016B00080302860286820F4802028606068E0B1CD
:1016C000FFF710FC064614E02868800322D5606806
:1016D0000028D2D01EE0286840F48030EDE740F4C6
:1016E00080202860F7E700BFFFF7FCFB801B642821
:1016F00070D828688003F7D50CE0FFF7F3FB0646A7
:1017000005E000BFFFF7EEFB801B6428F0D82868D7
:101710008003F7D4207880074CD5A868E96800F0EA
:101720000C0001F003010C2802D004280DD001E0C8
:1017300002290AD0E068002828682BD040F4807085
:101740002860FFF7CFFB064619E02868400502D560
:10175000E068002891D06868217C20F0FE4040EAD3
:1017600001606860C1480068FFF7DAFB002800D11B
:1017700020E076E1FFF7B6FB801B0228B8D8286886
:101780004005F7D56868217C20F0FE4040EA016002
:1017900068600FE020F480702860FFF7A3FB064626
:1017A00005E000BFFFF79EFB801B0228A0D8286839
:1017B0004005F7D42078000729D560690028D5F8BE
:1017C000940013D040F00100C5F89400FFF78AFBA5
:1017D000064606E090E000BFFFF784FB801B02286E
:1017E00086D8D5F894008007F6D510E020F00100E7
:1017F000C5F89400FFF776FB064604E0FFF772FB9E
:10180000801B022878D8D5F894008007F6D4207879
:10181000400761D5A86D0026C00008D4A86D40F02F
:101820008050A865A86D012600F080500090904877
:101830000168C90511D40168804641F480710160D6
:10184000FFF750FB074604E0FFF74CFBC01B0228E4
:1018500052D8D8F80000C005F6D5A068012815D0E8
:101860000528D5F8900016D020F00100C5F89000AA
:10187000D5F8900020F00400C5F89000A06841F26F
:101880008838B8B1FFF72EFB07460EE0D5F8900078
:1018900040F00100F0E740F00400C5F89000F5E7E3
:1018A000FFF720FBC11B414526D8D5F890008007E3
:1018B000F6D50CE0FFF716FB074604E0FFF712FB36
:1018C000C11B414518D8D5F890008007F6D41EB149
:1018D000A86D20F08050A8652078800629D5A069E1
:1018E0000028D5F8980013D040F00100C5F8980002
:1018F000FFF7F8FA064606E077E000BFFFF7F2FAD6
:10190000801B022877D8D5F898008007F6D510E01C
:1019100020F00100C5F89800FFF7E4FA064604E05D
:10192000FFF7E0FA801B022865D8D5F898008007F9
:10193000F6D4E069F0B3A968C1F38101032961D04D
:101940000228286820F0807028600BD0E86820F01A
:101950000300E860E86847490840E860FFF7C2FA1A
:1019600004464BE0FFF7BEFA064604E0FFF7BAFA7A
:10197000801B02283FD828688001F7D4F4E90801C9
:101980006FF00F0202EB01110843218A520449084B
:1019900002EB4151A26841EA02210843217D4FF048
:1019A0007E42490802EB41610843217B40EAC16065
:1019B000E96800E062E0304A11400843E8602868C6
:1019C00040F080702860E86840F08070E860FFF7C1
:1019D00089FA044605E000BFFFF784FA001B0228DD
:1019E00009D828688001F7D548E004E0FFF77AFAC3
:1019F000001B022802D90320BDE8F8832868800173
:101A0000F4D43BE00128F7D0E868226A00F0030133
:101A1000914226D1616A00F0F00209011039914229
:101A20001FD1A26A00F4FE41B1EB022F19D194F844
:101A30002C2000F07841B1EBC26F12D1218E00F45E
:101A4000C00249084905A1F50011914209D194F855
:101A5000341000F0C06049084906A1F100718142CC
:101A60000CD00120C8E70000001002400400002054
:101A700000700040FFFFEEFE0C809F010020BBE7DE
:101A80004FF0E0210428086903D020F00400086129
:101A9000704740F00400FAE710B5401EB0F1807FB7
:101AA00001D3012010BD4FF0E02460610F216017C9
:101AB00001F0E2F90020A06107202061002010BDA4
:101AC00090F88010012918D0012180F8801024217D
:101AD000C0F8841050F8641B0A680B6823F00103F7
:101AE0000B6022F000510022026050F8643C196043
:101AF000202101620277104670470220704770472C
:101B0000704770B5044690F8800001281DD0012070
:101B100084F880002420C4F88400206805680268E6
:101B200022F0010202602068826822F060620A43AB
:101B30008260204600F056FE206805602020C4F830
:101B40008400002084F8800070BD022070BD70B554
:101B5000044690F8800001281DD0012084F8800000
:101B60002420C4F8840020680568026822F001027D
:101B700002602068826822F060420A438260204648
:101B800000F030FE206805602020C4F884000020AA
:101B900084F8800070BD022070BD704770477047A8
:101BA0002DE9F04103680446D86919689A6840F63F
:101BB0000F0528424FF0000509D186067ED501F0B9
:101BC000200602F080573E4378D0216F27E1A94ECE
:101BD000A94F16400F40374370D0C70709D0CF0533
:101BE00007D501271F62D4F88C3043F00103C4F8F5
:101BF0008C3083070AD5D30708D0276802233B62BD
:101C0000D4F88C3043F00403C4F88C3043070AD571
:101C1000D30708D0276804233B62D4F88C3043F004
:101C20000203C4F88C3003070CD501F020033343C2
:101C300008D0266808233362D4F88C3043F00803B8
:101C4000C4F88C3003050BD54B0109D526684FF439
:101C500000633362D4F88C3043F02003C4F88C3036
:101C6000D4F88C30002B3AD0800609D501F0200042
:101C700002F08051084303D0216F09B12046884704
:101C8000D4F88C0021688968490602D410F0280F26
:101C900027D0204600F066FE2068806840061BD5ED
:101CA0002068083050E8001F21F0400140E8001291
:101CB000002AF5D1E06F78B1704900E017E0816348
:101CC000E06FFEF788FF002809D0E06F816B00E02D
:101CD0002046BDE8F04108472046FFF760FFBDE819
:101CE000F0812046FFF75BFFC4F88C50F7E7E76E02
:101CF0002026012F7ED1C7067CD5CF067AD51020AD
:101D0000186220688068400642D5E16F0868406824
:101D10000004000CE3D0B4F85C208242DFD9A4F8C0
:101D20005E000868006880062BD4206850E8001F19
:101D300021F4807140E80012002AF6D120680830B2
:101D400050E8001F21F0010140E80012002AF5D1FF
:101D50002068083050E8001F21F0400140E80012E0
:101D6000002AF5D1C4F88860E566216851E8000FC3
:101D700020F0100041E80002002AF6D1E06FFEF7E3
:101D8000F5FEB4F85C00B4F85E10401A81B22CE0A5
:101D9000B4F85C00B4F85E10401A81B2B4F85E008A
:101DA00000289CD000299AD0226852E8000F20F425
:101DB000907042E80003002BF6D12E4BDB432068E5
:101DC000083050E8002F1A4040E80027002FF6D1D5
:101DD000C4F88860E5662567226852E8000F20F0A5
:101DE000100042E80003002BF6D12046FFF787FEE3
:101DF00075E7FFE7C70209D5570207D54FF48010F2
:101E000018622046BDE8F041FFF7C8BE03060AD5B8
:101E100001F0800302F40002134304D0616F002933
:101E20007FF456AF5BE7420611D54A060FD5204630
:101E3000016851E8002F22F0400241E80023002B06
:101E4000F6D1C0F88460456700F096F847E70202D3
:101E500006D54A0004D52046BDE8F041FFF79DBEF7
:101E6000C001C5D50029C3DA2046BDE8F041FFF71F
:101E700047BE0000010000102001000451290008A5
:101E800010B5040003D0D4F8840010B107E001209D
:101E900010BD002084F88000204600F027F82420A0
:101EA000C4F884002068016821F001010160204627
:101EB00000F082FD0128EBD0A06A10B1204600F0AE
:101EC000B3FC2068416821F490414160206881683A
:101ED00021F02A0181602068016841F00101016060
:101EE0002046BDE8104000F003BD000010B59CB0D6
:101EF0000446142115A8FEF79BFB54216846FEF703
:101F000097FB1A49206888422ED101200024CDE990
:101F100000046846FFF7E4F808B1FEF703FE144832
:101F2000016E41F480410166016E01F480411A9115
:101F3000C16C41F00401C164C06C15A900F004003B
:101F40001A90302015900220CDE916040720CDE923
:101F500018400848FEF798FE002211462520FFF79A
:101F600027F82520FFF716F81CB010BD00380140F7
:101F700000100240000800487047FEE770B50D46AB
:101F8000044600F05FF8782000F020F800F0B0F888
:101F9000204600F01BF800F0ABF8284600F016F8D9
:101FA00000F0A6F8BDE8704000F076B810B5064C19
:101FB000012211022046FEF790FF20460122BDE8D3
:101FC00010405102FEF789BF000400482DE9F0419E
:101FD0001B4C06462046216821F4402121602168DF
:101FE00041F4802121604FF4007700223946FEF74A
:101FF00074FF00254FF48078300601D5012200E0FF
:10200000002241462046FEF768FF7006060E0220B9
:1020100001F046FE012239462046FEF75EFF02200F
:1020200001F03EFE002239462046FEF756FF022010
:1020300001F036FE6D1CEDB2082DDDD3BDE8F08158
:102040000004004870B5134C206820F44020206044
:10205000206840F480202060012215022946204695
:10206000FEF73BFF0122560231462046FEF735FFC0
:10207000042001F015FE002229462046FEF72DFF20
:10208000042001F00DFE31462046BDE870400022DC
:10209000FEF723BF0004004870B5144C206820F4FC
:1020A00040202060206840F4802020604FF40075BC
:1020B000002229462046FEF710FF6E10002231460E
:1020C0002046FEF70AFF042001F0EAFD012229461E
:1020D0002046FEF702FF012231462046FEF7FDFEB4
:1020E000BDE87040042001F0DBBD000000040048A2
:1020F0002DE9F041184C0025206820F44020206094
:10210000206820600122160231462046FEF7E5FED7
:10211000012001F0C5FD0122570239462046FEF795
:10212000DCFE012001F0BCFD08E06D1CEDB2FA2DD3
:1021300004D9FFF7B1FF0120BDE8F0813146204608
:10214000FEF7C6FE0028F0D1002239462046FEF7F1
:10215000C4FE0020F0E70000000400482DE9F04133
:1021600086B014216846FEF763FA3248C16C41F02C
:102170000401C164C16C01F004010591C16C41F01E
:102180002001C164C16C01F020010591C16C41F0D6
:102190000101C164C16C01F001010591C16C41F004
:1021A0000201C164C06C244F00F0020005900022BF
:1021B0000F213846FEF791FEDFF880804FF440761D
:1021C000002231464046FEF788FE4FF40050009052
:1021D0004FF488100024CDE9010469463846FEF723
:1021E00053FD01250D20CDE90005CDE902546946D6
:1021F0003846FEF749FD02200090CDE901546946BA
:1022000038460394FEF740FD11200096CDE9010504
:102210000320039069464046FEF736FD0022114632
:102220002820FEF7C5FE2820FEF7B4FE06B0BDE864
:10223000F08100000010024000080048000400483F
:10224000184810B5164901604FF4E1314160002192
:1022500081600C22C160C0E904128161C161016228
:1022600041628162FFF70CFE08B1FEF75BFC0021C2
:102270000C48FFF76CFC08B1FEF754FC002109483C
:10228000FFF73FFC08B1FEF74DFC0648FFF718FCCE
:10229000002803D0BDE81040FEF744BC10BD00008C
:1022A000003801406C020020FEE700000A4A0120CD
:1022B0000849526808E00B1813F8013C0D2B02D1B5
:1022C0000B5C0A2B04D0401C9042F4D300207047D2
:1022D00001207047FC0200203C0200200948816870
:1022E0000968C96989060CD507490A68074B41681E
:1022F0005A54491C4160642903D1002141600121E5
:10230000017070473C02002024380140FC0200208C
:10231000034988600068016841F02001016070474E
:102320003C02002030B50546FFF7C0FF002815D05D
:102330000C4800240C4A40680AE0115D295534B16C
:102340002B1913F8013C0D2B01D10A2907D0641C6D
:102350008442F2D3204600F079FD204630BD641C53
:10236000F8E700003C020020FC02002004498968D4
:102370000968CA695206FCD5024908607047000026
:102380003C0200202838014010B504460023E05CE0
:1023900020B1FFF7EBFF5B1C642BF8D30D20FFF798
:1023A000E5FF0A20FFF7E2FF9B1C642B01D201200E
:1023B00010BD002010BDFEE7002000F001B80000B5
:1023C00070B506465FF0000404F1B000C0B200F042
:1023D000CDFC002000F0CAFC102000F0C7FC002556
:1023E000304600F0C7FC6D1CEDB2802DF8D3641CA4
:1023F000E4B2082CE8D370BD10B5FFF7D7FD642018
:1024000001F048FCAE2000F0B1FC202000F0AEFC52
:10241000102000F0ABFCB02000F0A8FCC82000F0B9
:10242000A5FC002000F0A2FC102000F09FFC402042
:1024300000F09CFC812000F099FC204C607800F0BA
:1024400095FCA12000F092FC207808B1A62000E0C5
:10245000A72000F08BFCA82000F088FC3F2000F0B3
:1024600085FCA42000F082FCD32000F07FFC00203B
:1024700000F07CFCD52000F079FCF02000F076FC28
:10248000D92000F073FC222000F070FCDA2000F06C
:102490006DFC122000F06AFCDB2000F067FC2020BD
:1024A00000F064FC8D2000F061FC142000F05EFC64
:1024B000BDE81040AF2000F059BC0000160000201D
:1024C00010B50446B031C8B200F050FC102040EA0C
:1024D000141000F04BFC04F00F00BDE8104040F079
:1024E000010000F043BC00002DE9F0410024203A37
:1024F0000F468046012B21D0022B1DD1D6B2FFF70B
:10250000DFFF164D04EB0610285C00F033FC641C62
:10251000E4B2082CF6D37F1CF9B24046FFF7D0FF97
:102520005FF0000404EB06102844007A00F022FC5F
:10253000641CE4B2082CF5D3BDE8F081D5B2FFF7F6
:10254000BFFF074905EB450001EB4005285D00F0A2
:1025500011FC641CE4B2062CF8D3EDE7FC4D000836
:10256000CE4B0008FEB5151E064605D009DA2D2013
:102570008DF80000554207E03022FFF7B5FF01203B
:10258000FEBD20208DF8000001246A460A2008E0E4
:1025900095FBF0F700FB175795FBF0F53037175513
:1025A000641C002DF4DC00201055012004EBD475D0
:1025B0000AE000BF271A12F800E012F807C002F87C
:1025C00000C002F807E0401CB0EB650FF2DD9DF89B
:1025D00000002D28304604D0521C00F007F8601E81
:1025E000FEBD00F003F82046FEBD00002DE9F047D7
:1025F000002591468A460446012B22D0DFF8BC8094
:10260000022B24D155E02038C7B27E2C04D90AF120
:102610000100002400F0FF0A51462046FFF750FF5A
:1026200007EB4700002608EB4007B85D00F0A2FB6F
:10263000761CF6B2062EF8D3A41D6D1CE4B2EDB2E2
:1026400001E0DFF87C8019F805000028DBD1BDE847
:10265000F0872038C7B2782C04D90AF10100002491
:1026600000F0FF0A51462046FFF72AFF5FF0000600
:1026700006EB071118F8010000F07CFB761CF6B29F
:10268000082EF5D30AF10100C1B22046FFF718FF6A
:102690005FF0000606EB071101EB0800007A00F07E
:1026A00069FB761CF6B2082EF4D308346D1CE4B234
:1026B000EDB219F805000028CBD1C8E7FC4D0008A1
:1026C000CE4B0008704700002DE9F047254F8946A2
:1026D00004460025012204213846FEF7FEFB0120B6
:1026E00001F0DEFA012208213846FEF7F6FB012050
:1026F00001F0D6FA002208213846FEF7EEFB012051
:1027000001F0CEFA24E00026002204213846FEF72C
:10271000E4FB68064FEA1068012001F0C1FA0221CB
:102720003846FEF7D5FB40EA080501220421384669
:10273000FEF7D3FB012001F0B3FA761CF6B2082EA7
:10274000E2D309EB040000F8015C0025641EE4B24A
:10275000002CD8D13846BDE8F04701220821FEF709
:10276000BCBB0000000800487047FEF7C1BB10B5B5
:1027700094B038216846FDF75BFF14210EA8FDF7E1
:1027800057FF0020FEF746FC0120009000040324C0
:1027900006210190CDE9084102205521CDE90A101A
:1027A00007900C900D906846FEF764FF08B172B672
:1027B000FEE70F20CDE90E0400201090119012903A
:1027C00004210EA8FEF70CFE002801D072B6FEE729
:1027D00014B010BD0248016841F4700101607047F7
:1027E00088ED00E030B5416EB9B102689168926839
:1027F000C1F342610B4B520F9C5CE50003F10804EE
:10280000A25CB5FBF2F2A0F86A205A5C615CD200CF
:10281000B2FBF1F1A0F8681030BD0121A0F86A10F8
:10282000F8E700009E4B000890F82810C90706D072
:1028300001684A68C36A22F400321A434A6090F879
:102840002810890706D501684A68036B22F4803294
:102850001A434A6090F82810490706D501684A686B
:10286000436B22F480221A434A6090F8281009072B
:1028700006D501684A68836B22F400421A434A6015
:1028800090F82810C90606D501688A68C36B22F43F
:1028900080521A438A6090F82810890606D501688C
:1028A0008A68036C22F400521A438A6090F8281058
:1028B000490611D501684A68436C22F480121A4314
:1028C0004A60416CB1F5801F06D101684A68836C8B
:1028D00022F4C0021A434A6090F82810090606D56F
:1028E00001684A68C06C22F4002202434A607047C3
:1028F000F8B500260446C0F88C60FEF7F3FA0546EA
:10290000206800686FF07E47000708D52B4600223C
:102910004FF400112046009700F09AF960B9206842
:10292000006840070AD52B4600224FF4800120465C
:10293000009700F08DF908B10320F8BD2020C4F8FD
:102940008400C4F8880044F86C6F00202675F8BD38
:1029500010B5806A0021A0F85E10A0F85610FFF7AD
:102960001EF910BD10B5026852E8001F21F49071E5
:1029700042E80013002BF6D10E4B0268083252E8F1
:10298000001F194042E80014002CF6D1C16E012945
:1029900008D1016851E8002F22F0100241E800231D
:1029A000002BF6D12021C0F888100021C1660167F4
:1029B00010BD0000FEFFFFEF2DE9F0410446016865
:1029C00080682269E3691043626900251A43104355
:1029D000DFF84CC20A68934B1A4002430A60206831
:1029E0004168E26821F44051114341602168A069C7
:1029F000614501D0226A10438A688B4B1A4002431A
:102A00008A602068C16A626A21F00F011143C162C5
:102A10008649236886488B420DD1D0F8880010F093
:102A2000030006D0012867D0022854D0032851D1D2
:102A300064E001204FE07F498B420BD1D0F8880041
:102A400010F00C0047D0042845D0082852D00C289C
:102A500040D153E078498B420BD1D0F8880010F078
:102A6000300038D0102847D0202843D0302831D12A
:102A700044E072498B420BD1D0F8880010F0C000BE
:102A800029D0402838D0802834D0C02822D135E041
:102A90006B498B420ED1D0F8880010F440701AD0E8
:102AA000B0F5807F28D0B0F5007F23D0B0F5407F0F
:102AB00010D123E063450DD1D0F8880010F44060B8
:102AC00009D0B0F5806F17D0B0F5006F12D0B0F517
:102AD000406F13D010205B4A5B4F00264FF400413B
:102AE000634539D160B102280DD004280DD00828E3
:102AF00031D10EE00220EEE70420ECE70820EAE7FF
:102B0000FEF75CFD03E0114603E0FEF77BFD0100EC
:102B10007BD0606A37F810206768B1FBF2F007EBF2
:102B20004703834269D8B0EB073F66D800230846C5
:102B30001946FDF7E5FB090241EA10610202780837
:102B4000101871413A460023FDF7DAFB3F4AA0F521
:102B50004071914257D950E0E3694FF6EF788B42CC
:102B60002BD1092849D2DFE800F005080D48254897
:102B700048480E00FEF722FD01E0FEF731FD01009E
:102B800001D142E01146606A37F81000B1FBF0F065
:102B90004100606801EB5001B1FBF0F1A1F11000C0
:102BA00040452AD84FF6F07201EA0200C1F3420113
:102BB000084328E0FEF726FDE1E709281DD2DFE8FB
:102BC00000F005080D1C1E1C1C1C0E00FEF7F6FC78
:102BD00001E0FEF705FD010001D116E01146606A33
:102BE00037F81000B1FBF0F1606801EB5001B1FB68
:102BF000F0F0A0F11001414504D9012505E0FEF7F0
:102C000001FDE8E780B22168C8600120A4F86A00ED
:102C100024F8680F2846A660E660BDE8F081000051
:102C200000800040F369FFCFFFF4FF11003801403E
:102C3000001002400044004000480040004C0040AA
:102C4000005000400024F400864B0008FFFC0F00F9
:102C50002DE9F0479A4617460E4604464FF0000904
:102C60004FF02008089D4AE0681C48D0FEF73AF96A
:102C7000A0EB0A00A8422AD84DB320680168490792
:102C80003DD5C069C043000539D421684FF40060C8
:102C90000862206850E8001F21F4D07140E800125B
:102CA000002AF6D12068083050E8001F21F0010109
:102CB00040E80012002AF5D144F8848FC4F804805B
:102CC000C4F8088004F8049C0320BDE8F08721685C
:102CD00051E8000F20F4D07041E80002002AF6D13C
:102CE0002068083050E8001F21F0010140E8001280
:102CF000002AF5D144F8848FC4F80480E2E7206804
:102D0000C06936EA000004D00020B842ACD00020F0
:102D1000DBE70120F9E7000010B50448FFF7DEFA11
:102D2000BDE810400248FEF73BBF000000380140FC
:102D30006C020020FEE708B5002201211046FDF7D5
:102D4000B5FD69460120FFF7BFFC9DF80000410674
:102D500004D50A2000F09EFF002008BD000601D423
:102D6000012008BD032000F095FFE5E701460020A3
:102D7000FFF704B901464020FFF700B92DE9F04103
:102D8000254F88460446012204213846FEF7A5F85F
:102D9000012000F085FF012208213846FEF79DF84A
:102DA000012000F07DFF002208213846FEF795F84B
:102DB000012000F075FF25E008EB0400002510F865
:102DC000016C002204213846FEF787F8300601D551
:102DD000012200E0002201213846FEF77EF80120A2
:102DE00000F05EFF012204213846FEF776F801204C
:102DF00000F056FF70066D1C060EEDB2082DE0D3F4
:102E0000641EE4B2002CD7D13846BDE8F04101225F
:102E10000821FEF762B800000008004803B40198DA
:102E20004100009850EAC12018BF04204A0D18BF85
:102E300040F0010040F2FF72B2EB515F08BF40F07A
:102E40000200012808BF052002B0704710B500211C
:102E5000074AC0F1640303E00C18145D5454491C84
:102E60008B42F9D803494A68101A486010BD000027
:102E7000FC0200203C0200200907090E002804DBA8
:102E800000F1E02080F80014704700F00F0000F11E
:102E9000E02080F8141D70472DE9F04D2DED040B56
:102EA0002DED0C8B96B0DDE92350259CDDF888A034
:102EB00025F0004624F00048BAF1000F14BF0121AC
:102EC000002101EB4502FE4953184A1093422AD3D0
:102ED000002814BF0123002303EB44030B44F949EA
:102EE0008B4220D358EA00019FEDF78B6FD0DFF8BB
:102EF000E0B35D4503D1BAF1000F05D187E0BAF127
:102F0000000F08BF002100D0012101EB450111F5A0
:102F1000001F08D8002814BF0121002101EB440143
:102F200011F5001F0BD99DED241B9DED220B16B052
:102F3000BDEC0C8B04B0BDE8F04D00F05DBE002789
:102F4000002DBCBFE349884521DAE3498845A8BF85
:102F500002271CDAC3451ADCE04901EB2851142989
:102F600008DDC1F1340220FA02F101FA02F28242D4
:102F70000DD108E058B9C1F1140228FA02F101FAA2
:102F800002F2424503D101F00101C1F1020756EA04
:102F90000A011DD1002C1BDA002D18BF022F01D011
:102FA000012F0AD00220FDF772FB16B0BDEC0C8B8E
:102FB00004B0BDE8F04D00F007BE0220FDF767FB4E
:102FC00000F002FE51EC100B00F085FF83E01EE0E4
:102FD0009FEDC39B9FEDC4AB002872D1BD488045D7
:102FE0002DD105F1804010F5801008BFBAF1000F17
:102FF0000DD0B34515DC002CA1BF9DED240B16B000
:10300000BDEC0C8B04B0A8BFBDE8F08D12E0B0EEB3
:10301000480AF0EE680A16B0BDEC0C8B04B0BDE8AF
:10302000F08D002C06DA9DED240B51EC100B00F016
:1030300052FF50E0AE48784490ED000BEBE7D845E6
:103040004FD1002C4ADA2EB186423BD1BAF1000FA3
:1030500044D126E0BAF1000F13D00220FDF717FB90
:1030600000F0E6FD8DED020B9DED220B8DED000BCA
:1030700010EE900A039961F31E0003909DED020B80
:10308000C9E78DED029B9DED220B19EE901A10EE13
:10309000900A8DED000B61F31E0003909DED020B75
:1030A000B9E78DED02AB9DED220B1AEE901A10EEF2
:1030B000900A8DED000B61F31E0003909DED020B55
:1030C000A9E729E00ADA9DED220B51EC180B53EC2D
:1030D000102B00F0C9FF41EC100B9CE79DED220B7B
:1030E00099E7864218DAB4F1804F0DD0A4F1005070
:1030F000B0F1FF5010D1002D0EDB9DED220B51ECF5
:10310000100B00F0B1FEE6E79DED220B53EC102B07
:1031100051EC100B00F0AEBC9DED220B51EC100BEE
:1031200000F0D8FDBAF1000FCDE90C0134D19FEDCC
:10313000720BDEB1A6F1E040B0F17F602CD1002D22
:1031400001DD002C0DDA002D01DD002C1FDB002D30
:1031500016DA002C14DB012F08BF9FED690B3FF43A
:103160005AAFB0EE490AF0EE690A54E7022F18BFD1
:10317000002D0CD0012F0AD1002DFFF64CAF06E038
:10318000002DB8BF002C07DA012F3FF444AFB0EE9A
:103190004A0AF0EE6A0A3EE7012000EBE57A5AEAB5
:1031A00007000CD05848002580457CDD5749584819
:1031B000884514DDB0420DDB002C19DB2BE001202B
:1031C000FDF765FA16B0BDEC0C8B04B0BDE8F04D10
:1031D00000F01EBDB34502DC002C09DC1BE086427A
:1031E00002DA002C17DA03E05E4527DD002C12DD41
:1031F0000220FDF74CFA00F01BFD10EE901A19EEBC
:10320000900A8DED020B8DED009B61F31E00039083
:103210009DED020BFFE60220FDF739FA00F018FDE4
:1032200010EE901A18EE900A8DED020B8DED008BCA
:1032300061F31E0003909DED020BECE69DED220B69
:1032400053EC182B51EC100B01F036FB9FED320BB9
:10325000CDE90A0153EC102B9DED0A0B51EC100B3C
:1032600001F01EF99FED2E1B53EC112B01F04CFACF
:103270009DED0A1B53EC112B01F012F99FED2A1B57
:1032800053EC112B01F040FA9DED0A0B41EC190BA8
:1032900053EC102B51EC100B01F002F953EC192BED
:1032A00001F0FEF800E07EE09FED210B41EC1A0BEF
:1032B00053EC102B9DED0A0B51EC100B3CE0000081
:1032C000FFFF1F00FFFF0F00000000000000F03FA5
:1032D0000000F03F0000F07F0000404301FCFFFFD2
:1032E000000000000000F07F00000000000000006F
:1032F0003E240000000000000000000000000080EC
:10330000000000000000F0FF0000E0410000F0437A
:10331000FFFFEF3F00000000000000000000D03F72
:10332000555555555555D53F000000000000E03F6C
:10333000000000604715F73F01F0B2F841EC190BAF
:103340009FEDFD0B51EC1A0B53EC102B01F0A8F87C
:1033500041EC1A0B9FEDFA0B53EC102B9DED0A0B71
:1033600051EC100B01F09CF853EC1A2B01F0A4FA6D
:1033700041EC1A0B51EC190B53EC1A2B00F0B8FD71
:103380000690CDE906519DED060B53EC192B51EC3F
:10339000100B01F091FA53EC1A2B01F0B5F941EC46
:1033A000100B00F09FB90020B6F5801F0EDA9FEDDC
:1033B000E60B53EC102B9DED0C0B51EC100B01F0B8
:1033C0006FF8CDE90C016FF034000E4600EB26508B
:1033D000A0F2FF38C6F31300DD4940F07F6646F0E7
:1033E00040568842D8BF002409DDDA498142C8BF6F
:1033F000012404DC0024A6F5801608F10108D64853
:10340000784400EBC4000D9690ED00BB9DED0C0BD5
:1034100053EC1B2B51EC100B01F04EFA9DED0C0BF5
:1034200041EC1A0B53EC1B2B51EC100B00F060FD20
:1034300041EC100B51EC180B53EC102B00F014FE68
:1034400041EC1C0B51EC1A0B53EC1C2B01F028F82F
:1034500041EC190BC1488DED109B7844109590ED0F
:10346000000B4FF0005040EA660000EB84408DED09
:103470000A0B00F500200B909DED0A0B53EC1B2B63
:1034800051EC100B01F018FA9DED0C1B53EC112BB5
:1034900001F03AF941EC100B53EC102B9DED100BA1
:1034A00051EC100B00F0FCFF9DED0A0B41EC1B0BE7
:1034B00053EC102B9DED100B51EC100B00F0F0FFB6
:1034C00053EC1A2B01F020F953EC1B2B01F0F4F90B
:1034D00053EC1C2B00F0E4FF41EC1B0B53EC192BBD
:1034E00051EC190B00F0DCFF41EC1A0B9C48062153
:1034F000B0EE4A0AF0EE6A0A784400F0E9FAB0EE5B
:1035000040CAF0EE60CA53EC1A2B51EC1A0B00F0D3
:10351000C7FF53EC1C2B00F0C3FF9DED100B41ECDB
:103520001A0B53EC192B51EC100B00F0E1FC53EC8F
:103530001B2B00F0B5FF53EC1A2B00F0D9FC9DEDCE
:10354000100B41EC1A0B53EC102B51EC100B00F04C
:10355000A7FF41EC1C0B9FED84DB53EC1D2B00F00F
:10356000C7FC53EC1A2B00F0C3FC0A90CDE90A51BA
:103570009DED0A0B53EC1D2B51EC100B01F09CF947
:1035800053EC1C2B01F098F953EC1A2B01F0BCF80A
:103590009DED0A0B41EC1C0B53EC102B9DED100B19
:1035A00051EC100B00F07CFF41EC1A0B53EC192B83
:1035B00051EC1C0B00F074FF9DED0A0B41EC190B54
:1035C00053EC102B51EC1B0B00F06AFF53EC192B42
:1035D00000F08EFC41EC190B51EC1A0B53EC192B3B
:1035E00000F086FC1090CDE910519DED100B53ECCE
:1035F0001A2B51EC100B01F05FF953EC192B01F071
:1036000083F841EC190B9FED5A0B53EC102B9DEDF9
:10361000100B51EC100B00F043FF41EC1A0B9FED27
:10362000560B51EC190B53EC102B00F039FF41EC09
:10363000190B9FED530B53EC102B9DED100B51EC20
:10364000100B00F02DFF53EC192B00F051FC41EC56
:10365000100B4D48784400EBC40090ED001B51EC7A
:10366000100B53EC112B00F043FC41EC190B4046BE
:1036700000F0AFFECDE90A0153EC192B51EC1A0B07
:1036800000F036FC41EC100B4048784400EBC400DD
:1036900090ED00BB51EC100B53EC1B2B00F028FC01
:1036A0009DED0A1B53EC112B00F022FC0690CDE996
:1036B00006519DED0A0B53EC102B9DED060B51ECC2
:1036C000100B01F0F9F853EC1B2B01F0F5F853EC5B
:1036D0001A2B01F0F1F853EC192B01F015F841EC1D
:1036E000100B00BF781EB0EE48AAF0EE68AA5AEAA6
:1036F000000008BF9FED268B9DED241B53EC102B83
:103700008DED001B00959DED240B51EC100B00F08E
:10371000C7FE9DED000B41EC190B53EC102B9DEDFA
:10372000240B51EC100B01F0C7F89DED061B53EC78
:10373000112B00F0B5FE2FE0FE822B654715F73FF9
:1037400044DF5DF80BAE543E000000000000404333
:103750008E9803007AB60B00EC1F00001A200000C0
:10376000241F0000000000000000000000000840CE
:10377000000000E009C7EE3FFD033ADC09C7EE3F59
:10378000F5015B14E02F3EBEB81D0000721D000065
:10379000000000000000F0BF53EC192B00F0A8FB64
:1037A0009DED060B41EC190B53EC102B9DED000B1E
:1037B00051EC100B00F074FECDE910019DED100BE3
:1037C00051EC190B53EC102B00F092FBCDE90201E8
:1037D0000C46AB498C422FDB611A084318D19DED92
:1037E000100B53EC102B9DED020B51EC100B01F064
:1037F00063F841EC1B0B9FEDA40B51EC190B53EC40
:10380000102B00F075FB53EC1B2B00F047FF2DD263
:103810000220FCF73CFF00F00BFA10EE901A18EEB5
:10382000900A8DED020B8DED008B61F31E0003906D
:103830009DED020BFFF7EFBB954A24F0004191424A
:1038400014D39449214408437FF4E5AC9DED100B5B
:1038500053EC102B9DED020B51EC100B01F02CF8EA
:1038600053EC192B00F01AFF7FF6D5AC24F0004082
:1038700089498A4A002601EB205182422BDA481CF2
:103880004FF4801121FA00F02044854AC0F30A5118
:103890007A44A1F2FF3192ED000B824A8DED0A0BC2
:1038A000CA4020EA0202C0F3130040F48010C1F1C4
:1038B000140120FA01F60B92002CB8BF76429DED60
:1038C0000A0B53EC102B9DED100B51EC100B00F07C
:1038D000F3FFCDE910019DED100B51EC190B53ECEA
:1038E000102B00F005FB9FED700B0A90CDE90A51FB
:1038F00053EC102B9DED0A0B51EC100B00F0D0FD9A
:1039000041EC1B0B9FED6A0B53EC102B9DED0A0B4A
:1039100051EC100B00F0C4FD9DED100B41EC1C0BA5
:1039200053EC102B9DED0A0B51EC100B00F0C4FF73
:1039300053EC192B00F0E8FE9FED5F1B53EC112BAD
:1039400000F0AEFD53EC1C2B00F0D2FA41EC190B49
:1039500051EC1B0B53EC192B00F0CAFACDE9020114
:103960009DED020B53EC1B2B51EC100B00F0A4FF50
:1039700053EC192B00F0C8FE9DED020B41EC190B26
:1039800053EC102B51EC100B00F08AFDCDE90A012D
:103990004B489DED0A0B0521784400F099F89DED08
:1039A0000A1B51EC100B53EC112B00F079FD9DED2F
:1039B000021B53EC112B00F0A7FECDE906019DED93
:1039C000020B53EC192B51EC100B00F069FD53EC7A
:1039D000192B00F08DFA9FED3C0B41EC190B53ECC9
:1039E000102B9DED060B51EC100B00F065FF9DEDCB
:1039F000060B41EC1B0B53EC102B9DED020B51EC15
:103A0000100B00F04DFD53EC1B2B00F02DFB53EC85
:103A1000192B00F051FF9DED021B53EC112B00F010
:103A20004BFF53EC1A2B00F06FFECDE9020101EBC6
:103A3000065001150029C8BF039015DC9DED020B4F
:103A4000324651EC100B01F058F8FFF7E7F9042863
:103A500008BF00F0FDF832469DED020B51EC100B53
:103A600001F04BF8CDE902019DED020B51EC180B72
:103A700053EC102B00F014FDFFF72DBB00000000ED
:103A80000000904000000000FE822B654715973C27
:103A900000CC904000346F3F01FCFFFF0000E03F8E
:103AA000E41B0000FFFF0F0000000000432EE63F74
:103AB000396CA80C615C20BEEF39FAFE422EE63F5D
:103AC000B41A0000000000000000000000000040E8
:103AD00070B504462DED028B4D1E00EBC500B0EE17
:103AE000408AF0EE608A90ED000B35F0060017D0AA
:103AF00053EC182B51EC100B00F0D2FC41EC100BE6
:103B00006D1E04EBC50090ED001B51EC100B53EC47
:103B1000112B00F0EDF941EC100B35F00600E7D168
:103B2000022D36D0042D1CD0062D1CBFBDEC028BFF
:103B300070BD53EC182B51EC100B00F0B1FC94ED60
:103B40000A1B53EC112B00F0D3F953EC182B00F0A7
:103B5000A7FC94ED081B53EC112B00F0C9F941ECC4
:103B6000100B53EC182B51EC100B00F099FC94ED5A
:103B7000061B53EC112B00F0BBF953EC182B00F093
:103B80008FFC94ED040B53EC102B00F0B1F941ECD9
:103B9000100B53EC182B51EC100B00F081FC94ED42
:103BA000021B53EC112B00F0A3F953EC182B00F07F
:103BB00077FC94ED001B53EC112B00F099F9BDEC50
:103BC000028B41EC100B70BD9FED070B10B553EC51
:103BD000102B9FED070B51EC100B00F045FA41EC58
:103BE000100B10BD000000000000000000000000ED
:103BF000000000000000F03F10B553EC112B51EC19
:103C0000100B00F075F941EC100B10BD0000000026
:103C10009FED050B10B553EC102B51EC100B00F081
:103C200023FA41EC100B10BD000000000000000062
:103C30009FED050B10B553EC102B51EC100B00F061
:103C40002FFC41EC100B10BD0000000000000070C4
:103C50009FED050B10B553EC102B51EC100B00F041
:103C60001FFC41EC100B10BD000000000000001014
:103C700030380A2801D20120704700207047000028
:103C800010B504460420FDF7FBFE0148048010BD7A
:103C9000140000204FF47A71484300F001B800008E
:103CA00070B54FF0E024002265690949A3690988CD
:103CB0004843A1699942FCD002D2A3EB010302E080
:103CC000A5EB010633441A440B468242F1D370BD82
:103CD0001400002082B0CDE9000121F000400190E5
:103CE0009DED000B02B051EC100B70470449896840
:103CF0000968CA695206FCD5024AC1B21160704710
:103D00003C020020283801402DED048B9AB0FDF7CD
:103D1000F7F8FEF72CFDFEF721FAFEF791FAAA203C
:103D2000FFF7AEFF3148FEF7F3FAFEF765FBFEF74B
:103D300043FB02232EA203212820FEF757FCFCF7A9
:103D4000C5FD9FED2D8B9FED2E9B2F4D6846FEF7F9
:103D5000E9FA98B12DA0FEF717FB6846FEF714FBB1
:103D60009DF80000302803D19DF8010031283AD099
:103D7000022329A203212820FEF738FC2248FCF761
:103D8000AFFE002455F8240000F023FBB0EE481AE3
:103D9000F0EE681A53EC112B00F082FBB0EE491ADA
:103DA000F0EE691A53EC112B00F07AFB00F0B4FA34
:103DB00045F82400641CE4B2042CE3D318A029685D
:103DC000FCF716FB1AA06968FCF712FB1CA0A96897
:103DD000FCF70EFB1EA0E968FCF70AFB4FF47A70B3
:103DE000FFF758FFB2E702231DA2C3E76C020020D1
:103DF0005354415254000000000000000000703E87
:103E0000000000000088A3405C020020C4E3B7A2C9
:103E1000CBCDB5C4CAC7000046414C534500000095
:103E20004348303A25386C646D560D0A0000000096
:103E30004348313A25386C646D560D0A0000000085
:103E40004348323A25386C646D560D0A0000000074
:103E50004348333A25386C646D560D0A0000000063
:103E6000524947485400000000B52DED048B83B043
:103E700041EC190B00F054FC41EC180B18EE100A41
:103E800018EE901A8DED008B002818BF0120084312
:103E900020F00040C0F17F6000F1E040C00F14D07E
:103EA00019EE101A19EE900A8DED009B002918BF2B
:103EB0000121084320F00040C0F17F6000F1E040A4
:103EC000C00F04BF0120FCF7E2FB51EC180B03B05C
:103ED000BDEC048B00BD81F00041704780F00040D4
:103EE000704721F00041704720F00040704700000B
:103EF00010B591EA030F48BF83F0004300F1E4845A
:103F0000841A71EB030C05D2121943EB0C03001B4E
:103F100061EB0C01DFF824E14FEA1154A4EB135CD0
:103F20001EEA430F18BF9EEA445F73D023EA0E03D4
:103F3000DCF1200E21EA045143F4801332D322FA3B
:103F40000CFE10EB0E0023FA0CFE41EB0E01CCF13F
:103F5000200E03FA0EFE10EB0E0051F10001B1F538
:103F6000801FCCF1200E32D201EB045112FA0EF276
:103F7000BDE8104058BF7047401C38BF5FEA42029E
:103F800018BF7047002814BF20F0010041F1000164
:103F90004FEA410313F5001F38BF7047A1F1C0413C
:103FA00000F076BB012A43EB0302ACF1200CDCF1FC
:103FB0001F0E32BF4FF0000E23FA0CF310EB03007C
:103FC00041EB0451B4EB115FD0D0A1EB045101F5EA
:103FD000801149085FEA300001EB04510ED350F123
:103FE000000038BF12FA0EFE08D1BDE81040C9E744
:103FF000401C38BF5FEA4202CAD1C3E7BDE81040A7
:104000004FEA410313F5001F38BF7047A1F1C041CB
:1040100000F03EBB9EEA445F08D011EA5E0FBDE8A7
:10402000104004BF01F0004100207047BDE810407F
:1040300070B500F0DFFA00BF64FBBE3E0000E0FF99
:1040400002494FF0000000F026BD00BF0000F87FDD
:10405000491058BFC1F140415B1058BFC3F1404304
:104060008B42EFF3008070472DE9C04130B4DFF898
:10407000A0C23CEA111418BF3CEA131400F0EC8013
:1040800081EA03051CEA111444EAD57418BF1CEA3E
:10409000131500F0C780A4EB05044FF0004545EA76
:1040A000C12145EAC32341EA505143EA525304F186
:1040B0007F74994204F500344FEAC0204FEAC222CF
:1040C00008BF904200F09C804FEA13650FF2401643
:1040D000765D4FEA134506FB05F7C7F1807706FBCF
:1040E00007F74FEAD737A7FB03687642C8F5803851
:1040F000A7FB06CE38BFA8F1010807FB08E64FF082
:10410000000EA6FB028CE6FB03CEDCF1000CCEF128
:10411000004E38BFAEF1010EA6FB0C584FF0000761
:104120004FF00005E6FB0E87A1FB08C6A0FB07CEFB
:1041300016EB0E0645F10005E1FB076515F1E04EB3
:104140007EBFA4F580345FEA46066D4116F1800714
:1041500045F100054FEA17274FEA066647EA05676B
:10416000A6F1DE46B6F1805F4FEA15251FD9384625
:1041700024F0010C05EBC471BCF1FE6F01EB0C11D6
:1041800002D8F0BCBDE8008124425CBF01F5801E6E
:104190009EEAC47F02D4F0BCBDE80081244238D43A
:1041A000F0BCA1F1C041BDE8004100F071BA4FEA96
:1041B000D22242EA43524FEAD323A7FB02864FEAB8
:1041C000D02040EA415007FB03661EEA0E0F4FEA7B
:1041D000D12105FB026658BFA6EB0056B6EB005690
:1041E0004FEA520E4EEAC37E18EB0E0E56EB530EFC
:1041F000BDD518EB02085E417F1C55F10005B6E7FE
:104200004FF480154FF000074FF000064FF0000804
:10421000ADE7F0BC4FF0000001F1C04101F00041FA
:10422000BDE8008111EA0C1F0CEA131500D00CE068
:1042300013EA0C1F00F025804FF00000F0BC81EA6B
:10424000030101F00041BDE80081F0BCBDE8004180
:1042500081EA030100F01CBAF0BCBDE8004170B572
:1042600000F0C8F9097EFC3E00F007B881EA0301BE
:104270004FF0000001F00041704781EA030100F0B7
:1042800007BAF0BCBDE800414FF00000214970477B
:10429000FFFDFBF9F7F5F4F2F0EEEDEBE9E8E6E40B
:1042A000E3E1E0DEDDDBDAD8D7D5D4D3D1D0CFCD92
:1042B000CCCBCAC8C7C6C5C4C2C1C0BFBEBDBCBBCB
:1042C000BAB9B8B7B6B5B4B3B2B1B0AFAEADACABC6
:1042D000AAA9A8A8A7A6A5A4A3A3A2A1A09F9F9EA0
:1042E0009D9C9C9B9A999998979796959594939352
:1042F000929191908F8F8E8E8D8C8C8B8B8A8989E9
:10430000888887878685858484838382828181806B
:104310000000FF070000F87F4FEA41034FEA5353C4
:10432000A3F58063D3F11E03C8BFD3F1210C0CDDCC
:104330004FF0004242EAC12242EA505232FA03FCF4
:104340008CEAE17CACEBE1707047102BC4BF00201D
:10435000704703F5787CBCF1FF3F04D06FF000425A
:1043600082EA2100704770B500F044F94992248038
:1043700000207047F2E700004FEA1153A3F5806375
:10438000D3F11E03A8BFD3F1200C08DB4FF000428D
:1043900042EAC12252EA505232FA03F0704709420F
:1043A0000BD4102BC4BF0020704703F5787CBCF100
:1043B000FF3F05D04FF0FF3070474FF000007047CF
:1043C00070B500F017F900BF4992248000207047B3
:1043D000F0E710F0004248BF4042B0FA80F310FA14
:1043E00003F10AD0C3F11D0303F580634FEA415086
:1043F00002EB035202EBD12170474FF000007047EF
:10440000B0FA80F310FA03F10AD0C3F11D0303F5EB
:1044100080634FEA41504FEA035202EBD1217047CB
:104420004FF000007047000051EA030C17D41CF550
:10443000801F58BFBCF5801F00F10680994218BF4D
:10444000704708BF9042704707D711F5801F58BFCB
:1044500013F5801F19D499427047894270471CF5A3
:10446000801F08D5BCF5801FF7D58B4218BF704759
:1044700008BF824270474FF4001C1CEB410F38BF4D
:104480001CEB430F01D28B42704770B500F0B2F8BD
:10449000922449004FF000514FF08053FFF7D8BDF0
:1044A000DFF848C170B51CEA111E1EBF1CEA1315C7
:1044B0009EEA0C0F95EA0C0F00F06F8081EA03046E
:1044C00023EA4C134EEAD47E21EA4C1141F48011C8
:1044D00043F48013AE44A1FB024CA0FB0365AEF194
:1044E0007F7E361955EB0C05A1FB034C4CF1000304
:1044F000A0FB021C16EB0C06654153F100030942B8
:1045000018BF46F0010613F4007F0BD14FEA0331C8
:104510004FEA0530340341EA155140EA16506FF076
:1045200003020AE04FEAC3214FEAC520F40241EA40
:10453000555140EA56506FF0020202EB2E4201EB59
:10454000025585EACE710AD05FEA440C18BF24F008
:10455000004450F1000041F1000120EAD47040F223
:10456000FE7C624500D270BDA84214BF4FF080446B
:104570004FF04044002E08BF0024BEF1806FA8BF5A
:10458000A1F1C041BDE8704080F282804FF0000090
:1045900001F1C04101F0004170479EEA0C0F0CEAA6
:1045A000131518BF95EA0C0F06D04FF0000081EAF2
:1045B000030E0EF0004170BD00F01CF88900013EB2
:1045C00000F007B800F009B84FEA430C5FEA5C5C02
:1045D00008D081EA030100F05BB84FEA410C5FEAC2
:1045E0005C5CF6D14FF00000014970470000FF0706
:1045F0000000F87F0EF1020E2EF0030E5EF8046B41
:10460000364205D4012A43EB030515F5001F12D8E5
:10461000012841EB010C1CF5001F0CD80ED14FEA0C
:10462000D17C15F5001F0CEB4C0C0CF1020C08BFF3
:104630004CEBD37C04E04FF0080C01E04FEAD37C54
:104640000CEB4C0526FA05F606F00706B6F1040C4D
:1046500006D20EEB860CBDE870404CF0010C6047B2
:10466000DFE80CF0090B02024FF000414FF00000B0
:10467000A1F5002170BD19461046012851EB010437
:1046800018BFD4F5001484BF002001F0004170BDB4
:104690000808A0F500114FEA3101704753EA010CF8
:1046A00017D41CF5801F58BFBCF5801F00F1068091
:1046B0008B4218BF704708BF8242704707D713F577
:1046C000801F58BF11F5801F19D48B4270479B4241
:1046D00070471CF5801F08D5BCF5801FF7D599429F
:1046E00018BF704708BF904270474FF4001C1CEB86
:1046F000430F38BF1CEB410F01D2994270470FB4F2
:104700000CBC03BCFFF7C1BE91EA030F10B581F0EA
:1047100000413FF5F5AB83F0004300F0D5B8000051
:104720002DE9F04101F5801CBCF5001FC0F2A98005
:104730004FEA115C21EA0C510CF1FD0C41F480119F
:104740005FEA5C0C0CF5C07C01D34000494130A409
:10475000890241EA905187028E0E0A0CA45D04FB87
:1047600004F602FB06F6C6F14046A4FB0662F60D0F
:1047700046EA422606FB06F4A4FB01235242C3F19B
:10478000404338BF5B1EA6FB02420024E6FB032425
:10479000D20B42EA4446A6FB0623A1FB02E2A3FB9E
:1047A00007E4E3FB61426442C2F1404E38BFAEF120
:1047B000010EA6FB04234FF00002E6FB0E32A2FB23
:1047C00003463400E2FB6264A1FB06E6A4FB07E8B3
:1047D000E4FB61687642C8F1405838BFA8F101088F
:1047E000A2FB06E4A3FB08E5E2FB6854A1FB05E697
:1047F000A7FB04E8E1FB648618F1200556F10006EA
:10480000A809A8F11B08B10908F03F08B8F10A0F80
:1048100040EA86601CD901EB0C51BDE8F08100BF75
:10482000FCF5EEE8E2DDD8D3CFCBC7C3C0BDB9B647
:10483000B4B1AEACA9A7A5A3A19F9D9B9A9896954C
:104840009392908F8D8C8B898887868584838281D3
:10485000A0FB006800FB01F208EB4208B8EB8728D8
:1048600007D5341858EB0104D5D5401C51F100018F
:10487000D1E7341A78EB0104CDD4401E71F1000168
:10488000C9E75FEA4C0C5FEA9C5C0DD105D34FF0A1
:10489000000001F00041BDE8F081BDE8F04170B5D5
:1048A000FFF7A8FE6DDBFFBEBDE8F0414FF0000052
:1048B000004970470000F87F10B591EA030F48BF28
:1048C00083F000433FF51CAB841A71EB030C07D255
:1048D00012198CF0004C43EB0C03001B61EB0C0134
:1048E000DFF8A4E14FEA1154A4EB135C1EEA430F76
:1048F00018BF9EEA445F00F0B08023EA6E03524284
:1049000021EA0451C3EB6E0338BF5B1EDCF1200EBD
:1049100025D322FA0CFE10EB0E0043FA0CFE41EBFD
:104920000E01CCF1200E03FA0EFE10EB0E0051F139
:104930000001CCF1200E29D412FA0EF201EB045141
:10494000BDE8104058BF7047401C1CBFB2F1004F7B
:10495000704700280CBF491C20F00100704712EB83
:10496000020E43EB030218BF4FF0010E4EEA420263
:10497000ACF1200CDCF11E0E54D943FA0CFE10EB06
:104980000E0051F1FF31CCF11E0ED5D50EF1010E06
:1049900012FA0EFE404141EB010101EB445C5FEA7B
:1049A0005C5C10D910EBDE7001EB045138BFBEF136
:1049B000004FBDE8104018BF704700280CBF491CCD
:1049C00020F00100704730D24FEAD42C11F50011CD
:1049D00024F400641BD0B1FA81F20B3AA41AA41E8D
:1049E000D2F12003914030FA03F31943904001EBD8
:1049F000CC71002C01EB0451BDE81040A8BF7047FA
:104A000001F1C0414FF0000001F000417047B0FAE1
:104A100080F310FA03F100D110BDE41A173C4805E9
:104A2000C90AE4E701EB045110BD491001EB045140
:104A3000BDE810404FEA300002E04FF0000170473F
:104A40004A0008BF0042F8D0B2F5001F28BF7047E7
:104A500001F000414FF0000070479EEA445F07D02C
:104A600011EA5E0FBDE8104004BF0021002070472E
:104A7000BDE8104070B5FFF7BDFD00BF40DFF63E5A
:104A800083F00041104670470000E0FF4FF0407097
:104A9000E1EE100A70470CF00F03092B08BF082045
:104AA00000F059800A2B0BD0082B18BF704708BFA5
:104AB0001CF0400F0AD04FF000004FF0000170478B
:104AC0001CF0400F18BF4FF0004070471CF0100F53
:104AD00008D020F0704300F07F4242EAD3014FEA51
:104AE0004370704700F0604021F07F4242EA0002CC
:104AF00001F07F4040EA727070474FF0FF0C4CF4B9
:104B0000E06C1CEA11531CBF9CEA030C9445C2BF25
:104B1000DA4201EB02517047002B0DD0BCF1000FBF
:104B20000FD0002A01F00041A4BF41F0E04141F064
:104B30007F614FF00000704701F000414FF000002E
:104B4000704750EA01334FF09B0C18BF4CF0806C5B
:104B50007FF476AA70471CF4801F11D01CF4E02F5C
:104B600003D06FEACC31490070474FF04050EFF36B
:104B7000008222F0704242EA000282F3008870470D
:104B80004FF000007047010002000400060008001A
:104B90000A000C001000200040008000000101010C
:104BA00001030701000008040204080101010000DC
:104BB00000000000000001020304060708090000CD
:104BC00000000102030403020106000504070000BF
:104BD000000000000000002F000000000700070098
:104BE00000147F147F1400242A7F2A1200626408B4
:104BF0001323003649552250000005030000000031
:104C00001C224100000041221C000014083E081430
:104C10000008083E0808000000A06000000808081E
:104C20000808000060600000002010080402003E38
:104C30005149453E0000427F4000004261514946D3
:104C4000002141454B31001814127F1000274545C3
:104C50004539003C4A4949300001710905030036D5
:104C60004949493600064949291E000036360000E8
:104C700000005636000000081422410000141414ED
:104C800014140000412214080002015109060032E8
:104C90004959513E007C1211127C007F4949493626
:104CA000003E41414122007F4141221C007F494991
:104CB0004941007F09090901003E4149497A007FC5
:104CC0000808087F0000417F4100002040413F016B
:104CD000007F08142241007F40404040007F020CCA
:104CE000027F007F0408107F003E4141413E007F6B
:104CF00009090906003E4151215E007F0919294634
:104D00000046494949310001017F0101003F40400F
:104D1000403F001F2040201F003F4038403F0063BD
:104D200014081463000708700807006151494543DF
:104D300000007F41410000552A552A55000041419D
:104D40007F00000402010204004040404040000097
:104D500001020400002054545478007F4844443831
:104D600000384444442000384444487F00385454B8
:104D7000541800087E0901020018A4A4A47C007F36
:104D8000080404780000447D4000004080847D00D9
:104D9000007F102844000000417F4000007C041880
:104DA0000478007C0804047800384444443800FC4B
:104DB000242424180018242418FC007C0804040867
:104DC00000485454542000043F444020003C4040DC
:104DD000207C001C2040201C003C4030403C004413
:104DE00028102844001CA0A0A07C004464544C441B
:104DF000141414141414FFFFFFFFFFFF0000000041
:104E0000000000000000000000000000000000F8AA
:104E100000000000000000333000000000100C060D
:104E2000100C0600000000000000000040C07840A8
:104E3000C0784000043F04043F040400007088FC74
:104E400008300000001820FF211E0000F008F000CC
:104E5000E018000000211C031E211E0000F008883D
:104E6000700000001E2123241927211010160E00A7
:104E7000000000000000000000000000000000E052
:104E80001804020000000007182040000002041867
:104E9000E00000000040201807000000404080F0C3
:104EA000804040000202010F01020200000000F0F9
:104EB000000000000101011F0101010000000000CD
:104EC0000000000080B07000000000000000000042
:104ED00000000000000101010101010100000000CB
:104EE0000000000000303000000000000000000062
:104EF00080601804006018060100000000E010083F
:104F00000810E000000F102020100F00001010F813
:104F1000000000000020203F202000000070080852
:104F200008887000003028242221300000300888D2
:104F3000884830000018202020110E000000C020FA
:104F400010F8000000070424243F240000F808881B
:104F5000880808000019212020110E0000E01088A8
:104F600088180000000F112020110E0000380808DA
:104F7000C83808000000003F0000000000708808EA
:104F800008887000001C222121221C0000E010086B
:104F90000810E0000000312222110F00000000C0C4
:104FA000C000000000000030300000000000008061
:104FB0000000000000008060000000000000804051
:104FC000201008000001020408102000404040406A
:104FD00040404000040404040404040000081020BD
:104FE0004080000000201008040201000070480802
:104FF0000808F0000000003036010000C030C8286A
:10500000E810E0000718272423140B000000C03824
:10501000E0000000203C23020227382008F888889E
:1050200088700000203F202020110E00C0300808AA
:1050300008083800071820202010080008F8080881
:105040000810E000203F202020100F0008F888887A
:10505000E8081000203F20202320180008F8888846
:10506000E8081000203F200003000000C0300808BE
:105070000838000007182020221E020008F8080047
:105080000008F808203F210101213F20000808F80E
:10509000080800000020203F202000000000080831
:1050A000F8080800C08080807F00000008F888C0F1
:1050B00028180800203F20012638200008F80800A2
:1050C00000000000203F20202020300008F8F800D9
:1050D000F8F80800203F003F003F200008F830C0EB
:1050E0000008F808203F200007183F00E0100808DB
:1050F0000810E0000F10202020100F0008F808080A
:105100000808F000203F210101010000E01008081C
:105110000810E0000F18242438504F0008F8888841
:1051200088887000203F2000030C30200070880821
:10513000080838000038202121221C00180808F82F
:10514000080818000000203F2000000008F80800B0
:105150000008F808001F202020201F000878880081
:1051600000C83808000007380E010000F80800F8F1
:105170000008F800033C0700073C0300081868809B
:105180008068180820302C03032C30200838C80011
:10519000C83808000000203F200000001008080860
:1051A000C83808002038262120201800000000FE02
:1051B000020202000000007F40404000000C30C0AE
:1051C00000000000000000010638C00000020202DA
:1051D000FE000000004040407F000000000004028C
:1051E00002020400000000000000000000000000B7
:1051F00000000000808080808080808000020204A7
:10520000000000000000000000000000000080809E
:10521000808000000019242222223F2008F800800C
:1052200080000000003F112020110E0000000080CF
:1052300080800000000E112020201100000000805E
:105240008088F800000E112020103F200000808090
:1052500080800000001F222222221300008080F0A4
:10526000888888180020203F2020000000008080CF
:1052700080808000006B94949493600008F8008014
:1052800080800000203F210000203F20008098986F
:10529000000000000020203F2020000000000080CF
:1052A0009898000000C08080807F000008F800000F
:1052B00080808000203F24022D302000000808F864
:1052C000000000000020203F20200000808080801F
:1052D00080808000203F20003F20003F80800080B1
:1052E00080800000203F210000203F2000008080BF
:1052F00080800000001F202020201F008080008070
:105300008000000080FFA12020110E00000000801E
:1053100080808000000E112020A0FF80808080000F
:105320008080800020203F2120000100000080803C
:10533000808080000033242424241900008080E031
:10534000808000000000001F2020000080800000FE
:1053500000808000001F202020103F2080808000DF
:105360000080808000010E300806010080800080EF
:10537000008080800F300C030C300F000080800014
:10538000808080000020312E0E312000808080003F
:105390000080808080818E701806010000808080EF
:1053A000808080000021302C22213000000000008D
:1053B000807C020200000000003F4040000000002E
:1053C000FF00000000000000FF0000000002027C5F
:1053D000800000000040403F000000000006010186
:1053E00002020404000000000000000000000000B1
:1053F000000000000000F03F000000000000F83F47
:1054000000000000000000000000004003B8E23F80
:10541000000000000000000006D0CF43EBFD4C3E32
:10542000033333333333E33FFFAB6FDBB66DDB3F27
:105430004D268F515555D53F01411DA96074D13F6F
:1054400065DBC9934A86CD3FEF4E454A287ECA3F69
:105450003E5555555555C53F93BDBE166CC166BFEB
:105460002CDE25AF6A56113FF16BD2C541BDBBBEE4
:10547000D0A4BE726937663E000000000000000044
:10548000A0540008000000205C0200001402000884
:10549000605600085C0200206407000070020008EB
:1054A00041321082012B24F40E12FF1C108C840157
:1054B0002B85F6061484940C10102020100804028A
:1054C00001FF01020408102020160809CEB8082C9C
:1054D000027A4A01137A02191B1112031EFF49496D
:1054E000497F0419401560020CC0100AF8888888AA
:1054F000FF8888A818101004047C0380601F804374
:105500002C10284681803D808282FE031A80591328
:105510008660258040300F22FF1780844221100CC6
:105520001010407C407F484840F2121AD61212F206
:10553000022010908E404F201E804F201807102010
:105540004F80200E14A4442434AD6624940444A453
:1055500014180C08090808090909FD09090B092292
:10556000084EF808FF08F8A1247A0202120F1BFF68
:10557000080439A01967111AF06D180AF080904CD0
:1055800057A4544C8450180F1F100F081F101015EB
:1055900015FF1515101088200D60F80704E4A4A469
:1055A000BFA4A4E4041A019D3C40407FEF847F40E7
:1055B000404BFF0801290B6A4101295F2010100CA4
:1055C0004424140405060404142444140C2B404001
:1055D0001B2A7F05493F1BFE4001112EFF80402002
:1055E000103F111C7F2020782A3F1623407828097D
:1055F0000202C2020202FE820119BF19151977398F
:105600000439381602E222223E2808088848390E5A
:1056100008C880154382423E200921712925232193
:10562000287039961DF8898E880139A019681B18D1
:1056300007485480403F8B04840119E0CA200111BF
:10564000300E2010E824272424E424342C20E01DEC
:1056500080601F090107267F090949897F00000032
:04000005080001D915
:00000001FF
